{
  "contractName": "ASK",
  "abi": [
    {
      "inputs": [],
      "payable": false,
      "stateMutability": "nonpayable",
      "type": "constructor",
      "signature": "constructor"
    },
    {
      "constant": false,
      "inputs": [],
      "name": "registerMember",
      "outputs": [],
      "payable": true,
      "stateMutability": "payable",
      "type": "function",
      "signature": "0x60f8dd7e"
    },
    {
      "constant": false,
      "inputs": [
        {
          "name": "_userAddress",
          "type": "address"
        }
      ],
      "name": "unregisterUser",
      "outputs": [],
      "payable": true,
      "stateMutability": "payable",
      "type": "function",
      "signature": "0x21f2ca3b"
    },
    {
      "constant": false,
      "inputs": [
        {
          "name": "_date",
          "type": "string"
        },
        {
          "name": "_toCity",
          "type": "string"
        },
        {
          "name": "_fromCity",
          "type": "string"
        },
        {
          "name": "_response",
          "type": "uint256"
        },
        {
          "name": "_noSeats",
          "type": "uint256"
        }
      ],
      "name": "request",
      "outputs": [],
      "payable": true,
      "stateMutability": "payable",
      "type": "function",
      "signature": "0x4bf33c41"
    },
    {
      "constant": false,
      "inputs": [
        {
          "name": "_toAirline",
          "type": "address"
        },
        {
          "name": "_response",
          "type": "uint256"
        }
      ],
      "name": "response",
      "outputs": [],
      "payable": true,
      "stateMutability": "payable",
      "type": "function",
      "signature": "0x3ef9e3e4"
    },
    {
      "constant": false,
      "inputs": [
        {
          "name": "_toAirline",
          "type": "address"
        }
      ],
      "name": "settlePayment",
      "outputs": [],
      "payable": true,
      "stateMutability": "payable",
      "type": "function",
      "signature": "0x2109dc88"
    },
    {
      "constant": true,
      "inputs": [
        {
          "name": "_addr",
          "type": "address"
        }
      ],
      "name": "getBalance",
      "outputs": [
        {
          "name": "",
          "type": "uint256"
        }
      ],
      "payable": false,
      "stateMutability": "view",
      "type": "function",
      "signature": "0xf8b2cb4f"
    }
  ],
  "bytecode": "0x608060405234801561001057600080fd5b50336000806101000a81548173ffffffffffffffffffffffffffffffffffffffff021916908373ffffffffffffffffffffffffffffffffffffffff16021790555060018060008060009054906101000a900473ffffffffffffffffffffffffffffffffffffffff1673ffffffffffffffffffffffffffffffffffffffff1673ffffffffffffffffffffffffffffffffffffffff16815260200190815260200160002060000160006101000a81548160ff02191690831515021790555060018060008060009054906101000a900473ffffffffffffffffffffffffffffffffffffffff1673ffffffffffffffffffffffffffffffffffffffff1673ffffffffffffffffffffffffffffffffffffffff16815260200190815260200160002060000160016101000a81548160ff021916908315150217905550610fe7806101566000396000f3fe608060405260043610610078576000357c0100000000000000000000000000000000000000000000000000000000900463ffffffff1680632109dc881461007d57806321f2ca3b146100c15780633ef9e3e4146101055780634bf33c411461015357806360f8dd7e14610350578063f8b2cb4f1461035a575b600080fd5b6100bf6004803603602081101561009357600080fd5b81019080803573ffffffffffffffffffffffffffffffffffffffff1690602001909291905050506103bf565b005b610103600480360360208110156100d757600080fd5b81019080803573ffffffffffffffffffffffffffffffffffffffff169060200190929190505050610575565b005b6101516004803603604081101561011b57600080fd5b81019080803573ffffffffffffffffffffffffffffffffffffffff169060200190929190803590602001909291905050506107ab565b005b61034e600480360360a081101561016957600080fd5b810190808035906020019064010000000081111561018657600080fd5b82018360208201111561019857600080fd5b803590602001918460018302840111640100000000831117156101ba57600080fd5b91908080601f016020809104026020016040519081016040528093929190818152602001838380828437600081840152601f19601f8201169050808301925050505050505091929192908035906020019064010000000081111561021d57600080fd5b82018360208201111561022f57600080fd5b8035906020019184600183028401116401000000008311171561025157600080fd5b91908080601f016020809104026020016040519081016040528093929190818152602001838380828437600081840152601f19601f820116905080830192505050505050509192919290803590602001906401000000008111156102b457600080fd5b8201836020820111156102c657600080fd5b803590602001918460018302840111640100000000831117156102e857600080fd5b91908080601f016020809104026020016040519081016040528093929190818152602001838380828437600081840152601f19601f8201169050808301925050505050505091929192908035906020019092919080359060200190929190505050610994565b005b610358610b9a565b005b34801561036657600080fd5b506103a96004803603602081101561037d57600080fd5b81019080803573ffffffffffffffffffffffffffffffffffffffff169060200190929190505050610dac565b6040518082815260200191505060405180910390f35b3360011515600160008373ffffffffffffffffffffffffffffffffffffffff1673ffffffffffffffffffffffffffffffffffffffff16815260200190815260200160002060000160009054906101000a900460ff16151514151561048b576040517f08c379a00000000000000000000000000000000000000000000000000000000081526004018080602001828103825260208152602001807f536f727279207468652075736572206973206e6f74207265676973746572656481525060200191505060405180910390fd5b348034141515610529576040517f08c379a00000000000000000000000000000000000000000000000000000000081526004018080602001828103825260408152602001807f54686520616d6f756e74206265696e67207472616e7366657272656420646f6581526020017f736e74206d6174636820746865207472616e73616374696f6e20616d6f756e7481525060400191505060405180910390fd5b8273ffffffffffffffffffffffffffffffffffffffff166108fc349081150290604051600060405180830381858888f1935050505015801561056f573d6000803e3d6000fd5b50505050565b6000809054906101000a900473ffffffffffffffffffffffffffffffffffffffff1673ffffffffffffffffffffffffffffffffffffffff163373ffffffffffffffffffffffffffffffffffffffff16141515610639576040517f08c379a000000000000000000000000000000000000000000000000000000000815260040180806020018281038252601d8152602001807f5468652075736572206973206e6f742061206368616972706572736f6e00000081525060200191505060405180910390fd5b8060011515600160008373ffffffffffffffffffffffffffffffffffffffff1673ffffffffffffffffffffffffffffffffffffffff16815260200190815260200160002060000160009054906101000a900460ff161515141515610705576040517f08c379a00000000000000000000000000000000000000000000000000000000081526004018080602001828103825260208152602001807f536f727279207468652075736572206973206e6f74207265676973746572656481525060200191505060405180910390fd5b6000600160008473ffffffffffffffffffffffffffffffffffffffff1673ffffffffffffffffffffffffffffffffffffffff16815260200190815260200160002060000160006101000a81548160ff0219169083151502179055508173ffffffffffffffffffffffffffffffffffffffff166108fc349081150290604051600060405180830381858888f193505050501580156107a6573d6000803e3d6000fd5b505050565b3360011515600160008373ffffffffffffffffffffffffffffffffffffffff1673ffffffffffffffffffffffffffffffffffffffff16815260200190815260200160002060000160009054906101000a900460ff161515141515610877576040517f08c379a00000000000000000000000000000000000000000000000000000000081526004018080602001828103825260208152602001807f536f727279207468652075736572206973206e6f74207265676973746572656481525060200191505060405180910390fd5b82600260003373ffffffffffffffffffffffffffffffffffffffff1673ffffffffffffffffffffffffffffffffffffffff16815260200190815260200160002060000160006101000a81548173ffffffffffffffffffffffffffffffffffffffff021916908373ffffffffffffffffffffffffffffffffffffffff16021790555034600260003373ffffffffffffffffffffffffffffffffffffffff1673ffffffffffffffffffffffffffffffffffffffff1681526020019081526020016000206002018190555081600260003373ffffffffffffffffffffffffffffffffffffffff1673ffffffffffffffffffffffffffffffffffffffff1681526020019081526020016000206003018190555061098f836103bf565b505050565b3360011515600160008373ffffffffffffffffffffffffffffffffffffffff1673ffffffffffffffffffffffffffffffffffffffff16815260200190815260200160002060000160009054906101000a900460ff161515141515610a60576040517f08c379a00000000000000000000000000000000000000000000000000000000081526004018080602001828103825260208152602001807f536f727279207468652075736572206973206e6f74207265676973746572656481525060200191505060405180910390fd5b60008686866040516020018084805190602001908083835b602083101515610a9d5780518252602082019150602081019050602083039250610a78565b6001836020036101000a03801982511681845116808217855250505050505090500183805190602001908083835b602083101515610af05780518252602082019150602081019050602083039250610acb565b6001836020036101000a03801982511681845116808217855250505050505090500182805190602001908083835b602083101515610b435780518252602082019150602081019050602083039250610b1e565b6001836020036101000a038019825116818451168082178552505050505050905001935050505060405160208183030381529060405280519060200120600190049050610b91818585610dcd565b50505050505050565b3360001515600160008373ffffffffffffffffffffffffffffffffffffffff1673ffffffffffffffffffffffffffffffffffffffff16815260200190815260200160002060000160009054906101000a900460ff161515141515610c8c576040517f08c379a00000000000000000000000000000000000000000000000000000000081526004018080602001828103825260248152602001807f536f72727920746865207573657220697320616c72656164792072656769737481526020017f657265640000000000000000000000000000000000000000000000000000000081525060400191505060405180910390fd5b60018060003373ffffffffffffffffffffffffffffffffffffffff1673ffffffffffffffffffffffffffffffffffffffff16815260200190815260200160002060000160006101000a81548160ff0219169083151502179055506000600160003373ffffffffffffffffffffffffffffffffffffffff1673ffffffffffffffffffffffffffffffffffffffff16815260200190815260200160002060000160016101000a81548160ff0219169083151502179055506000809054906101000a900473ffffffffffffffffffffffffffffffffffffffff1673ffffffffffffffffffffffffffffffffffffffff166108fc349081150290604051600060405180830381858888f19350505050158015610da8573d6000803e3d6000fd5b5050565b60008173ffffffffffffffffffffffffffffffffffffffff16319050919050565b3360011515600160008373ffffffffffffffffffffffffffffffffffffffff1673ffffffffffffffffffffffffffffffffffffffff16815260200190815260200160002060000160009054906101000a900460ff161515141515610e99576040517f08c379a00000000000000000000000000000000000000000000000000000000081526004018080602001828103825260208152602001807f536f727279207468652075736572206973206e6f74207265676973746572656481525060200191505060405180910390fd5b83600260003373ffffffffffffffffffffffffffffffffffffffff1673ffffffffffffffffffffffffffffffffffffffff1681526020019081526020016000206001018190555034600260003373ffffffffffffffffffffffffffffffffffffffff1673ffffffffffffffffffffffffffffffffffffffff1681526020019081526020016000206002018190555082600260003373ffffffffffffffffffffffffffffffffffffffff1673ffffffffffffffffffffffffffffffffffffffff1681526020019081526020016000206003018190555081600260003373ffffffffffffffffffffffffffffffffffffffff1673ffffffffffffffffffffffffffffffffffffffff168152602001908152602001600020600401819055505050505056fea165627a7a723058208f1f3cdf7529a9cf05899f502335176561bad6df8f58dd37da40cfb9e9d679f60029",
  "source": "pragma solidity ^0.5.0;\n\n// response = 0 --> initiated\n// response = 1 --> Confirmed\n// response = 2 --> Declined\ncontract ASK {\n\n    struct Airline {\n        bool isActive;\n        bool isChairperson;\n    }\n\n    struct Transaction {\n        address toAirline;\n        uint hashedData;\n        uint price;\n        uint response;\n        uint noOfSeats;\n    }\n    address chairpersonAddress;\n    uint constant membershipFees = 50 ether;\n    mapping(address => Airline) airlines;\n    mapping(address => Transaction) transaction;\n    uint x;\n    modifier isUserAlreadyRegistered(address _userAdd) {\n        require(\n            airlines[_userAdd].isActive == true,\n            \"Sorry the user is not registered\"\n        );\n        _;\n    }\n\n    modifier isUserAlreadyUnRegistered(address _userAdd) {\n        require(\n            airlines[_userAdd].isActive == false,\n            \"Sorry the user is already registered\"\n        );\n        _;\n    }\n\n    modifier isHeChairperson(){\n        require(\n            msg.sender == chairpersonAddress,\n            \"The user is not a chairperson\"\n        );\n        _;\n    }\n\n    modifier membershipFeesCheck(uint _value){\n        require(\n            _value > 49 ether,\n            \"The value should be atleast 50 ether\"\n            );\n        _;\n    }\n\n     modifier amountTransferredCheck(uint _price){\n        require(\n            msg.value == _price,\n            \"The amount being transferred doesnt match the transaction amount\"\n            );\n        _;\n    }\n\n    //function() payable external   {\n\n   // }\n\n    constructor() public{\n       chairpersonAddress = msg.sender;\n        airlines[chairpersonAddress].isActive = true;\n        airlines[chairpersonAddress].isChairperson = true;\n    }\n\n    function registerMember() public payable isUserAlreadyUnRegistered(msg.sender){\n        airlines[msg.sender].isActive = true;\n        airlines[msg.sender].isChairperson = false;\n        //uint finalFees = msg.value + membershipFees;\n        address(uint160(chairpersonAddress)).transfer(msg.value);\n        //chairpersonAddress.call.value(membershipFees);\n    }\n\n    function unregisterUser(address _userAddress) public payable isHeChairperson isUserAlreadyRegistered(_userAddress) {\n        airlines[_userAddress].isActive = false;\n        address(uint160(_userAddress)).transfer(msg.value);\n    }\n\n    function request(string memory _date, string memory _toCity, string memory _fromCity, uint _response,uint _noSeats) public payable isUserAlreadyRegistered(msg.sender) {\n        uint hashedValues = uint(keccak256(abi.encodePacked(_date,_toCity,_fromCity)));\n        _request(hashedValues,_response,_noSeats);\n    }\n\n    function _request( uint _hashedData,uint _response,uint _noSeats) private  isUserAlreadyRegistered(msg.sender) {\n        transaction[msg.sender].hashedData = _hashedData;\n        transaction[msg.sender].price = msg.value;\n        transaction[msg.sender].response = _response;\n        transaction[msg.sender].noOfSeats = _noSeats;\n    }\n    function response(address _toAirline,uint _response) public payable isUserAlreadyRegistered(msg.sender) {\n        transaction[msg.sender].toAirline = _toAirline;\n        transaction[msg.sender].price = msg.value;\n        transaction[msg.sender].response = _response;\n        settlePayment(_toAirline);\n    }\n    function settlePayment(address _toAirline) public payable isUserAlreadyRegistered(msg.sender) amountTransferredCheck(msg.value) {\n        address(uint160(_toAirline)).transfer(msg.value);\n    }\n    function getBalance(address _addr) public view returns(uint) {\n        return(address(_addr).balance);\n    }\n}\n",
  "sourcePath": "/home/ubuntu/Desktop/blockchain-ask/ask-blockchain/contracts/ASK.sol",
  "compiler": {
    "name": "solc",
    "version": "0.5.0+commit.1d4f565a.Emscripten.clang"
  },
  "schemaVersion": "3.0.1",
  "updatedAt": "2019-05-09T12:38:54.882Z",
  "devdoc": {
    "methods": {}
  },
  "userdoc": {
    "methods": {}
  }
}